:020000040800F2
:1000000000000520B1450008A1440008A3440008F1
:10001000A5440008A7440008A94400080000000007
:10002000000000000000000000000000AB440008D9
:10003000AD44000800000000AF440008B1440008CF
:100040000146000801460008014600080146000874
:100050000146000801460008014600080146000864
:100060000146000801460008014600080146000854
:100070000146000801460008014600080146000844
:100080000146000801460008014600080146000834
:100090000146000801460008014600080146000824
:1000A0000146000801460008014600080146000814
:1000B0000146000801460008014600080146000804
:1000C00001460008014600080146000801460008F4
:1000D00001460008014600080146000801460008E4
:1000E00001460008014600080146000801460008D4
:1000F00001460008014600080146000801460008C4
:1001000001460008014600080146000801460008B3
:1001100001460008014600080146000801460008A3
:100120000146000801460008014600080146000893
:100130000146000801460008014600080146000883
:100140000146000801460008014600080146000873
:100150000146000801460008014600080146000863
:100160000146000801460008014600080146000853
:100170000146000801460008014600080000000092
:100180000146000801460008014600080146000833
:100190000146000801460008014600080146000823
:1001A0000146000801460008014600080146000813
:1001B0000146000801460008014600080146000803
:0801C000014600080146000899
:1001D00010B5054C237833B9044B13B10448AFF381
:1001E00000800123237010BD90000020000000005B
:1001F000A87D010808B5034B1BB103490348AFF3C1
:10020000008008BD0000000094000020A87D0108C7
:1002100001F0FF01102A2BDB10F0070F08D010F8B7
:10022000013B013A8B422DD010F0070F42B3F6D1BB
:10023000F0B441EA012141EA014122F007047FF0D4
:1002400000070023F0E80256083C85EA010586EA2B
:10025000010685FA47F5A3FA87F586FA47F6A5FA67
:1002600087F68EB9EED1F0BC01F0FF0102F0070273
:1002700032B110F8013B013A83EA010313B1F8D11E
:100280000020704701387047002D06BF35460338FF
:10029000073815F0010F07D1013015F4807F02BF38
:1002A000013015F4C03F0130F0BC0138704700BF89
:1002B00010F8012B11F8013B012A28BF9A42F7D010
:1002C000D01A704781F0004102E000BF83F0004384
:1002D00030B54FEA41044FEA430594EA050F08BFE1
:1002E00090EA020F1FBF54EA000C55EA020C7FEAA5
:1002F000645C7FEA655C00F0E2804FEA5454D4EB22
:100300005555B8BF6D420CDD2C4480EA020281EAEB
:10031000030382EA000083EA010180EA020281EA23
:100320000303362D88BF30BD11F0004F4FEA013175
:100330004FF4801C4CEA113102D0404261EB410184
:1003400013F0004F4FEA03334CEA133302D052420A
:1003500063EB430394EA050F00F0A780A4F10104C6
:10036000D5F1200E0DDB02FA0EFC22FA05F2801800
:1003700041F1000103FA0EF2801843FA05F35941E6
:100380000EE0A5F120050EF1200E012A03FA0EFC65
:1003900028BF4CF0020C43FA05F3C01851EBE3718F
:1003A00001F0004507D54FF0000EDCF1000C7EEBAC
:1003B00000006EEB0101B1F5801F1BD3B1F5001FEA
:1003C0000CD349085FEA30004FEA3C0C04F1010409
:1003D0004FEA445212F5800F80F09A80BCF1004F32
:1003E00008BF5FEA500C50F1000041EB045141EAB4
:1003F000050130BD5FEA4C0C404141EB010111F4B5
:10040000801FA4F10104E9D191F0000F04BF01465F
:100410000020B1FA81F308BF2033A3F10B03B3F13D
:1004200020020CDA0C3208DD02F1140CC2F10C02CD
:1004300001FA0CF021FA02F10CE002F11402D8BF2B
:10044000C2F1200C01FA02F120FA0CFCDCBF41EAF7
:100450000C019040E41AA2BF01EB0451294330BDC6
:100460006FEA04041F3C1CDA0C340EDC04F11404A3
:10047000C4F1200220FA04F001FA02F340EA03007A
:1004800021FA04F345EA030130BDC4F10C04C4F1C0
:10049000200220FA02F001FA04F340EA03002946A0
:1004A00030BD21FA04F0294630BD94F0000F83F4EA
:1004B000801306BF81F480110134013D4EE77FEACD
:1004C000645C18BF7FEA655C29D094EA050F08BF19
:1004D00090EA020F05D054EA000C04BF19461046FA
:1004E00030BD91EA030F1EBF0021002030BD5FEA3E
:1004F000545C05D14000494128BF41F0004130BD66
:1005000014F580043CBF01F5801130BD01F00045B9
:1005100045F0FE4141F470014FF0000030BD7FEA2C
:10052000645C1ABF194610467FEA655C1CBF0B4627
:10053000024650EA013406BF52EA033591EA030F3E
:1005400041F4002130BD00BF90F0000F04BF002136
:10055000704730B54FF4806404F132044FF0000569
:100560004FF0000150E700BF90F0000F04BF0021E2
:10057000704730B54FF4806404F1320410F0004548
:1005800048BF40424FF000013EE700BF42004FEA43
:10059000E2014FEA31014FEA02701FBF12F07F43C0
:1005A00093F07F4F81F06051704732F07F4208BF77
:1005B000704793F07F4F04BF41F40021704730B57E
:1005C0004FF4607401F0004521F000411CE700BFCA
:1005D00050EA010208BF704730B54FF000050AE04D
:1005E00050EA010208BF704730B511F0004502D54E
:1005F000404261EB41014FF4806404F132045FEA50
:10060000915C3FF4D8AE4FF003025FEADC0C18BFF8
:1006100003325FEADC0C18BF033202EBDC02C2F1EA
:10062000200300FA03FC20FA02F001FA03FE40EA7C
:100630000E0021FA02F11444BDE600BF70B54FF080
:10064000FF0C4CF4E06C1CEA11541DBF1CEA13555E
:1006500094EA0C0F95EA0C0F00F0DEF82C4481EAC6
:10066000030621EA4C5123EA4C5350EA013518BFE6
:1006700052EA033541F4801143F4801338D0A0FBD3
:1006800002CE4FF00005E1FB02E506F00042E0FB80
:1006900003E54FF00006E1FB03569CF0000F18BF86
:1006A0004EF0010EA4F1FF04B6F5007F64F540742E
:1006B00004D25FEA4E0E6D4146EB060642EAC621C1
:1006C00041EA55514FEAC52040EA5E504FEACE2E2E
:1006D000B4F1FD0C88BFBCF5E06F1ED8BEF1004F31
:1006E00008BF5FEA500E50F1000041EB045170BDAD
:1006F00006F0004646EA010140EA020081EA0301F1
:10070000B4EB5C04C2BFD4EB0C0541EA045170BDEC
:1007100041F480114FF0000E013C00F3AB8014F166
:10072000360FDEBF002001F0004170BDC4F10004AF
:10073000203C35DA0C341BDC04F11404C4F1200530
:1007400000FA05F320FA04F001FA05F240EA02008B
:1007500001F0004221F0004110EBD37021FA04F6C1
:1007600042EB06015EEA430E08BF20EAD37070BD7B
:10077000C4F10C04C4F1200500FA04F320FA05F0DA
:1007800001FA04F240EA020001F0004110EBD370DC
:1007900041F100015EEA430E08BF20EAD37070BD4C
:1007A000C4F1200500FA05F24EEA020E20FA04F325
:1007B00001FA05F243EA020321FA04F001F00041D4
:1007C00021FA04F220EA020000EBD3705EEA430E45
:1007D00008BF20EAD37070BD94F0000F0FD101F074
:1007E0000046400041EB010111F4801F08BF013CAD
:1007F000F7D041EA060195F0000F18BF704703F0EB
:100800000046520043EB030313F4801F08BF013D71
:10081000F7D043EA0603704794EA0C0F0CEA13552D
:1008200018BF95EA0C0F0CD050EA410618BF52EAE7
:100830004306D1D181EA030101F000414FF00000ED
:1008400070BD50EA410606BF1046194652EA4306FB
:1008500019D094EA0C0F02D150EA013613D195EA6F
:100860000C0F05D152EA03361CBF104619460AD1B7
:1008700081EA030101F0004141F0FE4141F47001C1
:100880004FF0000070BD41F0FE4141F4780170BDB1
:1008900070B54FF0FF0C4CF4E06C1CEA11541DBF16
:1008A0001CEA135594EA0C0F95EA0C0F00F0A7F818
:1008B000A4EB050481EA030E52EA03354FEA013145
:1008C00000F088804FEA03334FF0805545EA131358
:1008D00043EA12634FEA022245EA111545EA106520
:1008E0004FEA00260EF000419D4208BF964244F1B7
:1008F000FD0404F5407402D25B084FEA3202B61AD6
:1009000065EB03055B084FEA32024FF480104FF4A9
:10091000002CB6EB020E75EB030E22BFB61A75461D
:1009200040EA0C005B084FEA3202B6EB020E75EBB0
:10093000030E22BFB61A754640EA5C005B084FEA18
:100940003202B6EB020E75EB030E22BFB61A7546E5
:1009500040EA9C005B084FEA3202B6EB020E75EBF0
:10096000030E22BFB61A754640EADC0055EA060EB1
:1009700018D04FEA051545EA16754FEA06164FEAF4
:10098000C30343EA52734FEAC2025FEA1C1CC0D1A0
:1009900011F4801F0BD141EA00014FF000004FF02D
:1009A000004CB6E711F4801F04BF01430020B4F1EE
:1009B000FD0C88BFBCF5E06F3FF6AFAEB5EB030CA6
:1009C00004BFB6EB020C5FEA500C50F1000041EBA3
:1009D000045170BD0EF0004E4EEA113114EB5C0470
:1009E000C2BFD4EB0C0541EA045170BD41F4801143
:1009F0004FF0000E013C90E645EA060E8DE60CEA4B
:100A0000135594EA0C0F08BF95EA0C0F3FF43BAF67
:100A100094EA0C0F0AD150EA01347FF434AF95EA1E
:100A20000C0F7FF425AF104619462CE795EA0C0F02
:100A300006D152EA03353FF4FDAE1046194622E7CF
:100A400050EA410618BF52EA43067FF4C5AE50EAA9
:100A500041047FF40DAF52EA43057FF4EBAE12E799
:100A60004FF0FF3C06E000BF4FF0010C02E000BF7A
:100A70004FF0010C4DF804CD4FEA410C7FEA6C5C5D
:100A80004FEA430C18BF7FEA6C5C1BD001B050EA00
:100A9000410C0CBF52EA430C91EA030F02BF90EAEB
:100AA000020F0020704710F1000F91EA030F58BFAA
:100AB000994208BF90422CBFD8176FEAE37040F00C
:100AC000010070474FEA410C7FEA6C5C02D150EAAA
:100AD000013C07D14FEA430C7FEA6C5CD6D152EA65
:100AE000033CD3D05DF8040B704700BF844610462A
:100AF00062468C461946634600E000BF01B5FFF729
:100B0000B7FF002848BF10F1000F01BD4DF808EDF8
:100B1000FFF7F4FF0CBF012000205DF808FB00BFC9
:100B20004DF808EDFFF7EAFF34BF012000205DF823
:100B300008FB00BF4DF808EDFFF7E0FF94BF012070
:100B400000205DF808FB00BF4DF808EDFFF7CEFF71
:100B500094BF012000205DF808FB00BF4DF808EDB0
:100B6000FFF7C4FF34BF012000205DF808FB00BF81
:100B70004FEA410212F5001215D211D56FF47873C5
:100B8000B3EB625212D94FEAC12343F0004343EA68
:100B9000505311F0004F23FA02F018BF4042704743
:100BA0004FF00000704750EA013005D111F00040CD
:100BB00008BF6FF0004070474FF00000704700BF63
:100BC0004FEA4102B2F1E04324BFB3F5001CDCF16F
:100BD000FE5C0DD901F0004C4FEAC0024CEA5070A7
:100BE000B2F1004F40EB830008BF20F001007047D6
:100BF00011F0804F21D113F13872BCBF01F00040D9
:100C0000704741F480114FEA5252C2F11802C2F10A
:100C1000200C10FA0CF320FA02F018BF40F001008B
:100C20004FEAC1234FEAD32303FA0CFC40EA0C003D
:100C300023FA02F34FEA4303CCE77FEA625307D17A
:100C400050EA01331EBF4FF0FE4040F440007047B1
:100C500001F0004040F0FE4040F40000704700BF4B
:100C60007BB972B90029BEBF00204FF0004106E0F9
:100C700008BF00281CBF6FF000414FF0FF3000F0AC
:100C8000F7B9ADF1080C6DE904CE002909DB002BA2
:100C90001ADB00F087F8DDF804E0DDE9022304B098
:100CA0007047404261EB4101002B1BDB00F07AF8FA
:100CB000DDF804E0DDE9022304B0404261EB4101CC
:100CC000524263EB43037047524263EB430300F02D
:100CD00069F8DDF804E0DDE9022304B0404261EB8D
:100CE00041017047524263EB430300F05BF8DDF8CB
:100CF00004E0DDE9022304B0524263EB4303704792
:100D000053B94AB9002908BF00281CBF4FF0FF3172
:100D10004FF0FF3000F0ACB9ADF1080C6DE904CE36
:100D200000F040F8DDF804E0DDE9022304B070478C
:100D300038B50022002304460D46FFF7F1FE28B91E
:100D400020462946BDE8384000F00AB8204605F1A3
:100D5000004100F005F8404261EB410138BD00BFA1
:100D6000D0B500220D4B06460F46FFF767FC00F09A
:100D700081F90446FFF7E8FB0022094BFFF75EFC10
:100D800002460B4630463946FFF7A0FA00F072F9EA
:100D90000022234610431946D0BD00BF0000F03D9D
:100DA0000000F0412DE9F047089E04468846002BDC
:100DB0004BD18A42154667D9B2FA82F24AB1C2F1E2
:100DC000200701FA02F320FA07F7954047EA0308E3
:100DD00094404FEA154E230CB8FBFEF71FFA85FC32
:100DE0000EFB178843EA084307FB0CF1994209D927
:100DF000EB1807F1FF3080F01B81994240F2188117
:100E0000023F2B445B1AA4B2B3FBFEF00EFB10337F
:100E100044EA034400FB0CFCA44509D92C1900F159
:100E2000FF3380F00781A44540F2048102382C444E
:100E300040EA0740A4EB0C0400271EB1D440002375
:100E4000C6E900433946BDE8F0878B4209D9002E38
:100E500000F0EB800027C6E9000138463946BDE8BE
:100E6000F087B3FA83F7002F47D18B4202D3824237
:100E700000F2FA80841A61EB030301209846002EE9
:100E8000E0D0C6E90048DDE702B9FFDEB2FA82F23F
:100E9000002A40F08F80491B4FEA154E1FFA85F853
:100EA0000127B1FBFEFC230C0EFB1C1143EA01439E
:100EB00008FB0CF1994207D9EB180CF1FF3002D274
:100EC000994200F2CD808446591AA3B2B1FBFEF0DC
:100ED0000EFB101443EA044408FB00F8A04507D9B0
:100EE0002C1900F1FF3302D2A04500F2B68018465B
:100EF000A4EB080440EA0C409FE7C7F1200CBB407C
:100F000022FA0CFE4EEA030E01FA07F420FA0CF561
:100F100021FA0CF34FEA1E482543B3FBF8F92C0CD9
:100F200008FB19331FFA8EFA44EA034309FB0AF45B
:100F30009C4202FA07F200FA07F10BD91EEB0303F9
:100F400009F1FF3080F087809C4240F28480A9F153
:100F5000020973441B1BADB2B3FBF8F008FB10335E
:100F600045EA034400FB0AFAA24508D91EEB040433
:100F700000F1FF336BD2A24569D90238744440EACC
:100F80000940A0FB0289A4EB0A044C45C2464B462B
:100F900054D351D0002E69D0B1EB0A0564EB0304A1
:100FA00004FA0CFCFD40FC404CEA0505C6E900547F
:100FB000002747E7C2F1200320FA03F7954001FA22
:100FC00002F021FA03F34FEA154E3843010CB3FB4C
:100FD000FEF71FFA85F80EFB173341EA034107FBC2
:100FE00008F38B4204FA02F407D9691807F1FF3CB1
:100FF0002FD28B422DD9023F2944CB1A81B2B3FBA9
:10100000FEF00EFB103341EA034100FB08F38B4274
:1010100007D9691800F1FF3C17D28B4215D9023865
:101020002944C91A40EA07473BE73746304609E7F3
:101030000746E7E61846FBE64145ABD2B8EB020AA5
:1010400069EB0E0201381346A4E76046E9E718464B
:1010500095E76746D1E781467CE702382C4447E7AD
:10106000ACF1020C2B442FE7384608E73746E9E697
:10107000704700BF4A0011D212F5001211D20DD5EF
:101080006FF47873B3EB62520ED44FEAC12343F08E
:10109000004343EA505323FA02F070474FF0000038
:1010A000704750EA013002D14FF0FF3070474FF0E7
:1010B000000070470022034680F859200263C0E90F
:1010C0000D225866704710B50446006E08B115F041
:1010D000AAFB204610BD70B5D0E90F45641BA242A3
:1010E00028BF224690F859404CB98E18B14206D01C
:1010F000C46D651CC565247801F8014BF6E71A70CC
:10110000036C1A440264002070BD000007B5009310
:1011100013460A4601460448406EFFF7DCFF0020F4
:1011200003B05DF804FB00BFAC00002010B504461E
:1011300001F036FF84F8580018B10023012823631A
:1011400001D1012010BD4FF0FF30FBE770B5002545
:101150000446234985672B4680F87C502A46C0E91F
:101160001A55C0E91C55C0E92055043002F006FDAF
:1011700084F85800002831D16368206AA364A3680A
:10118000E364E36958436364164B984294BF40009C
:101190004FF0FF3015F049FB00212066D4E90765C8
:1011A00005FB06F2520015F05FFEA26CF31020461C
:1011B000A2662365EB10E26C636501232363C4E937
:1011C0001B23236963676369A367237EC4E92065E2
:1011D00084F87C30BDE87040FFF7A8BF284670BD9A
:1011E0000D110008FCFFFF3F10B40024C165C2636D
:1011F00080F8594004645DF8044BFFF7A7BF38B589
:1012000000240546C0E90D440463006E08B115F0E2
:101210000AFB2C6638BD0000036B2DE9F04F044635
:1012200089B023B1D0F838B043699B4506DB20462E
:10123000FFF7E5FF002009B0BDE8F08F036E4FF027
:10124000000C0293036A039303FB0BF30593039BC8
:10125000626B634540F38580059B002503EB0C061C
:10126000A3689B1B082BA8BF08230193E369049381
:101270004FEA4C030793049B53430693049BAB42F2
:1012800067DD029B616803EB4507079B606AEA180C
:10129000069B2B444FEAC20ECB1A217E7044082BCA
:1012A000A8BF082341B3A16A4FF00009E26A01EB2D
:1012B0000E087244C3F1080E4B45ACBF9E44CE44A9
:1012C0000199894543DA4FF0000A9A4536DA10F859
:1012D0000A102F4E06EA01210E4618F80A10C9001E
:1012E00001F4FC61314312F80A6041EAD60127F8A3
:1012F0001A100AF1010AE8E7C3F10808002BA8BF99
:101300009844019A914222DA00229A4210DA10F8A7
:1013100002901F4E4FEAC90A06EA092E0AF4FC6A37
:101320004EEA0A0E4EEAD90E27F812E00132ECE737
:10133000626C4044013107EB4207E2E7616C7044A4
:10134000F044724407EB410709F10109B8E7083599
:1013500094E7029A0CF1080C636C02EB03130293FE
:1013600075E723692046C4E9222B01329A42626361
:1013700001BF002363630BF10103A363FFF7D6FEF4
:1013800001304FF0010004BF0023236353E700BF87
:1013900000F8FFFF0148FFF78DBE00BFAC00002042
:1013A0000148FFF790BE00BFAC00002001210420DF
:1013B00000F054BA0221042000F050BA08280BD8DB
:1013C000DFE800F005080A0C0E1012141600094898
:1013D00000F0CEB90848FBE70848F9E70848F7E706
:1013E0000848F5E70848F3E70848F1E70848EFE759
:1013F0000848EDE7E8800108388101088881010884
:10140000D8810108288201087A820108CC8201086B
:101410001A8301086C83010838B500F0BDFA044650
:1014200000F0F8F901210444FF2000F08BF980213D
:10143000122000F087F9642003F08CFD134B1D7817
:10144000012D1ED1124800F093F9124800F090F9D6
:10145000114800F08DF92946FF2000F073F90021B2
:10146000152000F06FF90D4800F082F9642003F0B8
:1014700071FD0020FFF7A2FF642003F06BFD204602
:1014800038BD074800F074F9F3E700BF0000002002
:101490006A7F0108567F0108C07D01088881010824
:1014A000D27D010838B5422000F03EFA04464320C0
:1014B00000F03AFA0546442000F036FA00F07F00CA
:1014C00044EA052444EA004038BD00002DE9F04F0D
:1014D0008FB0DFF8C08105460E460C9317466B4B64
:1014E00040466B491A68189CFFF77EFED8F88020AA
:1014F0000220D8F87410D8F8843095FBF2F2891ADB
:1015000091FBF0F196FBF3F30A4404910992D8F8A9
:101510007820D21A92FBF0F21344059280220A93AB
:1015200096FBF4F695FBF4F35E4307933B4606EB1C
:101530004606D91B8E4200F38B806B00554E0D93EF
:101540002B440B935348FFF767FE002800F09A8066
:10155000D6F88C10059B9942F4DBD6F88820049BC2
:101560009A42EFDB099B9A42ECDA0A9B9942E9DA4C
:10157000336E0393059BC91AD6F884304B43069308
:10158000049BD21AD6F8803053430893089A069BDE
:1015900005FB0323069A59000B44FB1801930C9B8F
:1015A000CB180293069BD01AD6F884308342C9DD4B
:1015B0000023D6F8800098424DDD0398772A00F189
:1015C000020003905CDC30F802AC012C08984FEA72
:1015D000DA2CCAF3451E0AF01F0802994FEACC0C18
:1015E00003EB00094FEA8E0E21F813A04FEAC8085A
:1015F0003BD1019903EB4300ACF1800B01F800B043
:101600000844AEF1800B029980F801B0A8F1800B7C
:1016100080F802B021F813A095FBF4F004FB105001
:1016200070BB0799ACF1800CAEF1800EA8F1800878
:1016300092FBF4F099FBF4F901FB009909EB4909DD
:1016400007F809C0B94489F801E089F8028017E079
:1016500003F8012B6DE7019B01320B990B440299B2
:1016600001930D9B194402919CE792FBF4F004FB5B
:10167000102028B999FBF4F004FB10900028CBD07F
:10168000013396E700200FB0BDE8F08F3C15002035
:101690003C010020AC00002008B5FFF787FE0120C8
:1016A00003F058FCFFF782FE012003F053FCFFF724
:1016B00081FE002008BD000037B5FFF7F3FE154B93
:1016C000441E05469C4222D800220121124803F004
:1016D000B5FF3C2000F0F6F829468DF807000F48CA
:1016E00000F004F923460D4A995C11B913F1FF3358
:1016F000FAD201330A4A084813600122114603F066
:101700009DFF084B002201201A7003B030BD00205D
:10171000FBE700BFFDFF0500002002403C01002068
:101720003C1500204015002008B50821412000F09C
:1017300069F90028F9D0FFF739FEFFF7BDFF002057
:1017400008BD00001FB50A238DF80C008DF80D10A0
:1017500003AA009360210223044804F0DBF801206F
:1017600003F0F8FB012005B05DF804FB44150020F0
:1017700070B5002405462646FF2E05F1020501D16D
:10178000FF2C08D015F8026C15F8014C30462146A4
:10179000FFF7D8FFF0E7012070BD000030B585B03D
:1017A0000A240D46012304AA602102F8010D0094C9
:1017B0000B4804F0AFF810B1002005B030BD012097
:1017C00003F0C8FB009401232A466121044804F079
:1017D00033F90028F0D1012003F0BCFB0120ECE735
:1017E0004415002007B50121FF20FFF7ABFF0DF1E5
:1017F00006010A20FFF7D2FF0DF107010B20FFF7CA
:10180000CDFF9DF80600263818BF012003B05DF813
:1018100004FB000070B50E4A0F210E4C00250E4B44
:101820002046C4E900230123C4E90213FF23C4E9CD
:101830000755C4E9045304F01BF806462946204620
:1018400004F08CF9FFF7CEFFAE4218BF013070BD37
:1018500000540040441500203227914013B50E4C2F
:1018600060F07F008DF8051000228DF80400012142
:10187000204603F0E3FE642301A90222074805F095
:1018800054F901222046114603F0D8FE012003F04E
:1018900061FB02B010BD00BF002002409015002087
:1018A00008B580210720FFF7D9FF642003F052FB21
:1018B00007200021FFF7D2FF6420BDE8084003F0B5
:1018C00049BB00007FB564238DF80F000DF11702AE
:1018D0000DF10F0100930123034805F0E1F99DF894
:1018E000170007B05DF804FB9015002037B50B4DCD
:1018F00002462C6844B90A4B2046E0540134B4F542
:10190000FD5FFAD101232B606423064800938BB25C
:10191000034905F0C5F9002003B030BDF4150020DF
:10192000F8150020901500201FB500220C4C012155
:10193000ADF808208DF80800204603F07FFE6423F0
:1019400003AA02A900930223064805F0A9F901227F
:101950002046114603F072FE9DF80D0004B010BD44
:10196000002002409015002037B500255524013491
:101970000020E4B22146FFF771FF0020FFF7D4FFFB
:101980008DF807009DF80730A34218BF01355F2C82
:10199000EDD1284603B030BD17484FF4E062174B35
:1019A00010B50360102386B0C260C361002383605A
:1019B0008362C0E90433C0E908330723C3624FF4EC
:1019C000007383614FF48273436005F059F801237B
:1019D000044601A90A480393CDE901330223049385
:1019E00003F044FDFFF75CFFFFF7BEFF002C18BFBC
:1019F000013006B010BD00BF901500200038004037
:101A00000020024010B50C46FFF78EFF204010BDAD
:101A10002DE9F04F87B08CB24FF0000903935300CB
:101A20009DF844A082B20193109E1FFA8AF304929B
:101A3000039A914529D0019A049DB2180292029A04
:101A400096421DD036F8022B00270092BA4514DDCD
:101A500004EB070B4FF000081FFA8BFB05EB0800A7
:101A600008F10108009A594680B2059302F0E8FE99
:101A7000C245059BF2DC0137E8E71D44ADB2DEE765
:101A80001C4409F10109A4B2D2E707B0BDE8F08F08
:101A900030B495B203238CB202462946204630BCAE
:101AA00002F04ABF10B50823A2B00193C02301A8D9
:101AB0000693052308934FF480330C9304F092FCB3
:101AC00003F05AF84FF04041002002F04FFE02F0C0
:101AD00035FE044602F03EFE604300F14051012015
:101AE000890002F043FE02F07BFF002002F07AFE44
:101AF0004FF07F4002F08EFE012002F073FE4FF0A7
:101B00007F4002F087FE0021084602F071FE64214A
:101B1000012002F06DFE024802F070FE22B010BDFE
:101B2000FF0000FF7047202970B510D0D0F8E041C9
:101B300000231C259C420AD005FB03F28618B669D7
:101B40008E4202D10432104470BD0133F2E700200E
:101B5000FAE77047014808F08FBB00BFB0CC042003
:101B6000D0F86C22112A38B50CD800F5F274002395
:101B70009A420BD054F8045B8D4205D18A3350F859
:101B8000230038BD15F0DEF80133F1E70020F8E757
:101B90002DE9F04106468846D0F8E071054600245C
:101BA000A74210D0AB69202B0AD14146E869FEF765
:101BB0007FFB28B91C2000FB04600430BDE8F081E5
:101BC00001341C35ECE70020F8E710B504464FF46B
:101BD0001C7114F02CFE204610BD00002DE9F043CE
:101BE0001D46B5B03023164631229DF8F090039380
:101BF000002381422C46ADF8103080460D930F46ED
:101C0000ADF818308DF81A30ADF820308DF822304C
:101C1000CDE90B234FF0320205924FF03402CDE9AB
:101C200009230B4638BF03464D454FF03302B8BF7A
:101C30004C4607920A460146B4422448B8BF34468F
:101C40009C42B8BF1C463346CDE9005909F034F830
:101C5000A14532DAA04512D103A9062301221C486E
:101C600005F02DFB1B490EA815F0D4FC0A2240F20A
:101C700011110EA8FFF70CFF35B0BDE8F083A742A5
:101C800007D10BA90C230122114805F018FB1249BA
:101C9000E9E7A64207D105A9072301220C4805F070
:101CA0000EFB0E49DFE7A542E6D109A90823012270
:101CB000074805F004FB0A49D5E707A907230122D5
:101CC000084805F0FCFA0849CDE700BFDC830108AD
:101CD0006CCD0420148401081E84010829840108A5
:101CE00034840108983500203E84010820292DE91C
:101CF000F843074688461446994608D1204808F01C
:101D0000DBFF204808F0D8FF0120BDE8F883036816
:101D10001B689847064638B11B4808F0CDFF41467E
:101D20001A4808F0C9FFEFE7D7F8E0C1BCF1100F7F
:101D300006D94146164808F0BFFF11211548F0E7C3
:101D40004FF01C0E0EFB0C7E0FCC0EF104050FC5E0
:101D50000CF1010394E8070085E80700CEF818802D
:101D60003046C7F8E031D7F86C3207EB8302013315
:101D7000C2F8E481C2F82892C7F86C32C5E700BF08
:101D80004A8401087B84010890840108BF8401080B
:101D9000E0840108118501082DE9F04FA3B0BFF3DD
:101DA0004F8FBFF36F8F334B0021C3F85012BFF337
:101DB0004F8FBFF36F8F5A6942F400325A61BFF3FD
:101DC0004F8FBFF36F8FC3F88410BFF34F8FD3F8DB
:101DD000802043F6E076C2F3C904C2F34E32A50771
:101DE000520102EA060C284621464CEA0007013956
:101DF00000F14040C3F860724F1CF6D1203A12F156
:101E0000200FEED1BFF34F8F5A6942F480325A61EE
:101E1000BFF34F8FBFF36F8F03F074F801264FF4B9
:101E20008033022519202095CDE916634FF48003F5
:101E3000CDE91C534FF4D873CDE91E03092316A82E
:101E4000219304F027F800B1FEE703F0EBFF00B1A7
:101E5000FEE70F234FF4805B1390072111A8CDE913
:101E600011354FF4A053CDE9143B04F0FDF90446BD
:101E700010B1FEE700ED00E00146142216A84FF075
:101E8000080914F0F1FFBF4B2021BF481A6B03274C
:101E90004FF00B0A4FF00A0842F010021A631A6B57
:101EA00002F010020792079A1A6B42F040021A637E
:101EB0001A6B02F040020892089A1A6B42F0020272
:101EC0001A631A6B02F002020992099A1A6B42F025
:101ED00008021A631A6B02F008020A920A9A1A6B35
:101EE00042F004021A631A6B02F004020B920B9A7E
:101EF0001A6B42F001021A631A6B02F001020C9293
:101F00000C9A1A6B42F400721A631A6B02F4007294
:101F10000D920D9A1A6B42F480721A631A6B02F4D6
:101F200080720E920E9A1A6B42F480621A631A6BD8
:101F300002F480620F920F9A1A6B42F020021A6329
:101F40001A6B02F020021092109A1A6B42F0800273
:101F50001A6332461B6B03F080031193119B03F04D
:101F60006DFB22460C21894803F068FB32460821AC
:101F7000874803F063FB59463246844803F05EFB12
:101F800022464FF40051834803F058FB2246C821F3
:101F9000814803F053FB16A980481894CDE91694A4
:101FA00003F064FA4FF4D04316A97B481894CDE9A6
:101FB0001635CDE9197A03F059FA43F6234316A9E9
:101FC0007748CDF86880CDE91635CDE9184703F09C
:101FD0004DFA802316A96C48CDF86890CDE91635E6
:101FE000CDE9184403F042FA16A96E481894CDE9D9
:101FF00016B403F03BFA6C4A402316A962484FF42A
:10200000005B05921894CDE9163203F02FFA4FF4D5
:10201000E05316A96548CDF86880CDE91635CDE9BD
:10202000184703F023FA202316A95748CDE916369E
:10203000CDE9184403F01AFA41F20C0316A95348EB
:10204000CDE91636CDE9184403F010FA16A9584820
:102050001894CDE916B403F009FA16A94C48CDE955
:102060001696CDE9184403F001FA102316A9464844
:1020700016934FF005090493CDE9174403F0F6F9E0
:1020800048F2040143481894CDE9161416A903F048
:10209000EDF916A93D48CDF86890CDE91655CDE982
:1020A000184403F0E3F916A93A48CDE916B6CDE98C
:1020B000184403F0DBF94FF4006134481894CDE97B
:1020C000161716A903F0D2F9059A16A92F48CDF8CC
:1020D00058B0CDE9172403F0C9F9049B16A92D487F
:1020E000CDF86880CDE91635CDE9184703F0BEF983
:1020F000C82316A92848CDE91636CDE9184403F0BF
:10210000B5F916A92A48CDF86880CDE91695CDE92C
:10211000184703F0ABF9322316A92548CDF868A07B
:10212000CDE91635CDE9184703F0A0F9042316A927
:1021300019481894CDE9163403F098F9862316A9A6
:102140001A48CDF868A0CDE91635CDE9184703F057
:102150008DF9282316A91548CDF86880CDE91635E4
:10216000CDE9184703F082F94FF4404316A90C4813
:10217000CDF86890CDE91635CDE9184403F076F92D
:1021800018E000BF00380240000C0240002002406E
:1021900000280240001C02400018024000100240CB
:1021A000000402400024024000001210000002401F
:1021B0000008024016A99C481896CDE9166403F061
:1021C00055F94FF4806316A998481896CDE916344E
:1021D00003F04CF9402316A995481894CDE916351B
:1021E00003F044F9802316A991481894CDE91635D7
:1021F00003F03CF92846214602F00EFA8D488E493C
:102200004FF4E133046184614462C0E900130C239C
:10221000C0E90244436105F0CAF8054618B12046FA
:1022200002F0F0F9FEE7854808F046FD844EFFF71E
:1022300039FC844B1968CA18CB58D31A32601988F4
:10224000042940F2E7809988002900F0E480515881
:10225000032940F0E0807C4808F02EFD7B4B7C4C4D
:102260001B78BFF35B8F13F0010F10D1774814F088
:10227000F1FA60B1774B754823600023C4F8E03170
:10228000C4F86C3214F0F2FA734814F081FD16A809
:10229000724D10F07FFA724B16AA01216C48FFF7BD
:1022A00025FD16A80BF0F8F86E4B16AA0321684816
:1022B000FFF71CFD16A80CF0DFFB6B4B16AA0421E0
:1022C0006348FFF713FD16A811F03EFF674B16AAEF
:1022D00016215F48FFF70AFD16A812F0E9F8644BD3
:1022E00016AA4D215A48FFF701FD16A812F056FA1A
:1022F000604B16AA19215648FFF7F8FC16A810F0F3
:102300005DFA574B16AA11215148FFF7EFFC16A8AA
:102310000CF0BCFF584B16AA09214D48FFF7E6FC0C
:1023200016A812F0F1FF554B16AA2D214848FFF7C9
:10233000DDFC16A80EF074FF514B16AA5321444839
:10234000FFF7D4FC16A80FF041F94E4B16AA222134
:102350003F48FFF7CBFC16A808F04CFF4A4B16AAE3
:1023600000213B48FFF7C2FC16A811F081F8474B4B
:1023700016AA28213648FFF7B9FC16A810F006FD6A
:10238000434B16AA72213248FFF7B0FC16A80DF095
:10239000A1FA404B16AA75212D48FFF7A7FC16A8F5
:1023A0000DF090FE3C4B16AA12212948FFF79EFC27
:1023B00016A80AF05DF8394B16AA02212448FFF747
:1023C00095FC2C78BFF35B8F14F0010415D12846DF
:1023D00014F040FA88B14FF4663301941C4A00931C
:1023E0002F48304BCDE90244316807F0CBFE284638
:1023F00014F03CFA2C4814F0CBFC2C4C2848A14695
:10240000206008F073F80546002855D0284808F0E9
:1024100053FC04E029460322264808F04DFC002026
:1024200023B0BDE8F08F00BF00000240001402405E
:102430000008024098350020001001402485010862
:102440003032012088860108738501081C3600207F
:1024500040CA0420C8830108251B0008203600203C
:10246000817C00089578000889790008DD7D0008E6
:10247000897E00081D7F0008657A0008AD7F00088E
:10248000E97B0008D176000859770008517D0008E3
:10249000D5760008CD7600085D7B0008F977000846
:1024A000B0CC042040320120551B0008243201200A
:1024B0007B8501082C8501084F48504F08F0FCFB34
:1024C0004F4E2946206807F0C1FE29463860206833
:1024D00007F09AFE3060FEF79FFF0496044600283E
:1024E0009DD1FFF7D9F847484FF41653464A474D58
:1024F000DFF820810461C5F800804462C0E9002350
:102500000C23C0E90244C0E90534C0E9074404F0E3
:102510004EFF002859D1A8F51044FFF705F9FFF741
:10252000BBF8012360212246009308462B68FEF782
:10253000CDFFD7F80080002000EB4001002311F808
:1025400004E001EB040AD8F8046003EB000B8EF002
:10255000800E9AF801C09AF80220013306F801E0D3
:102560008CF0800CD8F8046082F080024FEADE0E16
:10257000602B06EB010A8AF801C04FEA9C0CD8F8E0
:10258000046006EB010A01F103018AF802204FEA18
:10259000D202D5F800A042EACE2E4EEA4C1E2AF80E
:1025A0001BE0CCD16030B0F5105FC5D102220A210A
:1025B000CDE900A208461A46FFF72AFAD9F800002A
:1025C00008F07CF828B1124821E7204602F01AF8FA
:1025D000FEE7049B1B68D3F804C09CF804309CF809
:1025E00002209CF801109CF800009CF803C0CDF874
:1025F00000C0FFF7F3FA90E7948501082832012024
:102600002C3201206CCD042000140140183600202B
:102610009C85010824C60020054A1378013BDBB2E3
:102620001370044AD054044A13780133137070476E
:10263000EDD20420ECD10420ECD2042083B2FF2B95
:1026400004D90028ACBFFF2000207047C0B27047FB
:10265000084480B2FF2804D903B2002B03DBFF2B10
:1026600003DCC0B2704700207047FF207047401A5B
:1026700080B2FF2804D903B2002B03DBFF2B03DC5D
:10268000C0B2704700207047FF207047314B2DE9E2
:10269000F04F314E03EB010A304B85B006EB40069C
:1026A0004FF0020803EB01094FF0C60B582306F167
:1026B00008010AEB080409EB08020296019136F9B9
:1026C000027B023414F8040CFFB2039317FB03F5EA
:1026D0002D0A2C3D2DB22946FFF7C9FF04F8040C42
:1026E00014F8030CFFF7C3FF04F8030C2079FFF77D
:1026F000BEFF20716079FFF7BAFFA7F1E30117FB76
:102700000BF7607112F8020C01EB17273946FFF73F
:102710009FFF02F8020C12F8010CFFF799FF02F874
:10272000010C9079FFF794FF9071D079FFF790FF3B
:10273000019BD07102329E42039BC0D108F1100868
:10274000029EB8F1420F06F11006B0D105B0BDE807
:10275000F08F00BFF4D30420F0CD0420F4D2042085
:10276000294B2A4A2DE9F04F03EB010A284B85B08B
:1027700002EB400203EB01094FF0020858234FF02F
:10278000C60B02F108010AEB080709EB08060292E2
:10279000019132F9025B023717F8040C0236EDB2F0
:1027A000039315FB03F4240A2C3C24B22146FFF7C3
:1027B0005EFF07F8040C17F8030CFFF758FFA5F1AC
:1027C000E30115FB0BF507F8030C16F8040C01EBFD
:1027D00015252946FFF73CFF06F8040C16F8030CF4
:1027E000FFF736FF019B06F8030C9A42039BD0D1FA
:1027F00008F10808029AB8F1420F02F11002C0D1A4
:1028000005B0BDE8F08F00BFF4D30420F0CD042064
:10281000F4D20420234B2DE9F74F234A03EB010A9E
:10282000224B4FF0FF3702EB40024FF0C60B03EB99
:102830000109582302F110010AEB070809EB07060A
:10284000009132F9025B18F8010FEDB2019315FB0C
:1028500003F4240A2C3C24B22146FFF708FF88F831
:10286000000098F80800FFF702FFA5F1E30115FB4F
:102870000BF588F8080016F8010F01EB152529461D
:10288000FFF7E6FE3070307AFFF7E2FE009B307211
:102890009A42019BD5D110373F2FCBD103B0BDE871
:1028A000F08F00BFF4D30420F0CD0420F4D2042034
:1028B000314B2DE9F04F314E03EB010A304B85B01F
:1028C00006EB40064FF0020803EB01094FF0B70B8F
:1028D000672306F108020AEB080509EB08040296D3
:1028E000019236F9022B023515F8040C0234D2B2EB
:1028F000039312FB03F1A2F1B30707EB112739464B
:10290000FFF7A6FE05F8040C15F8030CFFF7A0FE70
:1029100005F8030C2879FFF79BFE28716879FFF70B
:1029200097FE12FB0BF26871120A14F8040C5B3A62
:1029300012B21146FFF79BFE04F8040C14F8030CC6
:10294000FFF795FE04F8030C2079FFF790FE207145
:102950006079FFF78CFE019B60719E42039BC0D1A2
:1029600008F11008029EB8F1420F06F11006B0D12E
:1029700005B0BDE8F08F00BFF4D40420F0CD0420F2
:10298000F4D30420274B2DE9F04F274C03EB010A29
:10299000264B85B004EB4004022703EB01094FF0FE
:1029A000B70B672304F108020AEB070609EB0705DA
:1029B0000294019234F9022B023616F8040C023507
:1029C000D2B2039312FB03F1A2F1B30808EB112872
:1029D0004146FFF73DFE06F8040C16F8030CFFF71E
:1029E00037FE12FB0BF206F8030C120A15F8040C62
:1029F0005B3A12B21146FFF73AFE05F8040C15F8DF
:102A0000030CFFF734FE019B05F8030C9C42039B6B
:102A1000D0D10837029C422F04F11004C2D105B076
:102A2000BDE8F08FF4D40420F0CD0420F4D30420CA
:102A3000214B2DE9F74F214C03EB010A204B4FF0BE
:102A4000FF3604EB40044FF0B70B03EB010967239B
:102A500004F110020AEB060709EB0605009234F9AF
:102A6000022B17F8010FD2B2019312FB03F1A2F16E
:102A7000B30808EB11284146FFF7EAFD3870387AB1
:102A8000FFF7E6FD12FB0BF23872120A15F8010F80
:102A90005B3A12B21146FFF7EAFD2870287AFFF779
:102AA000E6FD009B28729C42019BD8D110363F2E38
:102AB000CED103B0BDE8F08FF4D40420F0CD0420D3
:102AC000F4D304200A4B0B490B4A01440244184436
:102AD000002330B5094D15F813400133402B01F8A0
:102AE000014B02F8014B00F8014BF4D130BD00BF9F
:102AF000F4D20420F4D40420F4D30420F0CD042034
:102B000070B5134C134D2378CBB923700422124BAC
:102B1000FC212A7022461E68104B11481B68B047E2
:102B200008B1104B187023784BB90F4A1378DB4368
:102B3000DBB2002B137014BFFF20D92070BD2378A7
:102B4000013B23702B785A1C2A70084AD05CF5E7A9
:102B5000ECD20420EDD2042014D7042010D7042096
:102B6000F0D10420EFCD04200DD70420ECD10420B7
:102B700008B5FFF7C5FF30B1FFF74EFDFF20BDE8F8
:102B80000840FFF749BD08BDC0F3C8130028BCBF0B
:102B90006FEAC3536FEAD3531846704780224FF44D
:102BA000B57300FB0323180A002BB8BF40F07F4029
:102BB00000B27047F8B50D4C0D4D27882B78FF0BF0
:102BC00063B9FFF79DFFFF28064601D1FFF7D0FF4D
:102BD00020882B780643083326802B702B783846C4
:102BE000013B2B7023885B002380F8BDECCD0420D3
:102BF000EECD04202DE9F84307460D460026FFF7E9
:102C0000D9FF07F1200880B24FF6FF7938F8023B70
:102C1000834201D34B450BD14000013684B2FFF70C
:102C2000C9FF102E40EA040080B2EFD1002009E075
:102C3000BB1993F84030184417F81630C01A00F04A
:102C4000FF00285CBDE8F8832DE9F04708282A4CEE
:102C500080468A462688DFF8A49043D999F8003048
:102C6000A0F1080706FA03F3FFB22380FFF748FF3D
:102C70000546BAF1000F03D0FF2801D1FFF778FF16
:102C8000208826F0FF06054399F80000ADB2C0F198
:102C900008008540ADB246EA1526258099F8002047
:102CA0002388BA4220D293402380FFF729FF0546AC
:102CB000BAF1000F03D0FF2801D1FFF759FF208898
:102CC00099F800300543F81A0833ADB2DF1B854090
:102CD00089F800702580C8F1100046FA00F080B233
:102CE000BDE8F0870746D9E7D21B03FA07F789F852
:102CF00000202780EFE700BFECCD0420EECD0420BC
:102D00000021FFF7A1BF00002DE9F04F804687B0FA
:102D1000994D0820FFF7F4FFC0B2FF28F9D1082031
:102D2000FFF7EEFFC0B2FF28F9D00028F1D0CB2882
:102D300022D8C9281AD2C42838D014D8012800F0C3
:102D4000188101D3C02811D21020FFF7D9FF012824
:102D5000DFD9023884B2002CDBD0013C0820FFF719
:102D6000CFFFA4B2F7E7C72800F2038188F800007C
:102D7000002007B0BDE8F08FD72806D8D02880F013
:102D8000F880CC28F2D11120F3E7DB2800F0948002
:102D9000ECD3DD28D8D11020FFF7B2FF0428B8D13A
:102DA0001020FFF7ADFF754B1880B2E71020FFF73A
:102DB000A7FF0128ADD90238714E84B2002CA8D0EB
:102DC0000820FFF79DFFC2B202F00F03012BA0D82D
:102DD00002F0F003102B9CD8D30800F001003178EA
:102DE0004FF0000A03F00203D34643EA0009654BA3
:102DF0005FFA89F253F82270634B53F822300122B4
:102E000002FA09F201930A4332700820FFF778FFB3
:102E100002AB5BFA80FB03F80A000AF1010A1FFA11
:102E20008BFBBAF1100FF0D1B9F1010FCCBFFF232A
:102E30000C239B453FF66DAF00235FFA83F903F146
:102E4000010AD94522D30BF1110B1FFA8BFBA345C5
:102E50003FF65FAF0022A4EB0B0407F120004FF612
:102E6000FF7AA4B21346944602A907EB020E895CCE
:102E7000A1B920F8201CA0F800A08EF84010013263
:102E80005B000230102A9BB2EED197E70820FFF7D3
:102E900037FF019B03F809005346CEE720F8203C9A
:102EA0000B449BB203F1FF3BA0F800B08EF840C08A
:102EB0008C445FFA8CFCE2E71020FFF721FF012829
:102EC0007FF627AF0238314E84B2002C3FF421AF99
:102ED0000820FFF715FFC0B200F00F0B0709BBF188
:102EE000010F3FF616AFBBF1000F32784FF000092B
:102EF0000CBF01230223134333700820FFF700FFA8
:102F00003FB100021FFA80FA0820FFF7F9FE504493
:102F100080B200B2BBF1000F28D01D4B29F803008E
:102F200009F10209B9F1800FE7D119481949BBF13C
:102F3000000F0CBFAB4683460420ABF102020BF13D
:102F40007E0B32F8023F11F801CF5A4513FB0C03F8
:102F50004FEAE3031380F4D1002F14BF81204120F6
:102F60008442FFF4D6AE241AA4B2AEE729F80500D5
:102F7000D6E71220FDE600BF06D6042008D70420BD
:102F80000ED70420E8850108F88501080FD7042032
:102F900086D60420478601080121FFF755BE0000B0
:102FA000A74B2DE9F04F85B01B780093002B40F024
:102FB000CB85A44B1B88002B00F09285A24E338852
:102FC000002B00F0AE85A14D2B88002B40F0A6858C
:102FD0004FF4C064FFF794FDFF2805D0013CA4B274
:102FE000002CF7D11D2369E0FFF78AFDFF2840F090
:102FF0007A85013CA4B2002CF6D1F3E7944B954AB4
:103000005C5D954B12F804801B5D9449944A954889
:10301000B8F1000F0CBF88469046002B924B9349A5
:1030200018BF1946924B18BF1846FFF7E3FD064636
:1030300010F00F0001D0FFF7AFFF013EF6B20E2EE9
:1030400008D88C4B33F81630834282BF8A4B33F852
:103050001630C018894B00B2894E33F81420894FBE
:1030600012FA80F0884A80B223F81400B8F80030D1
:1030700013FB00F0854B1880854B195D854B0029AB
:103080001878854B04BF16461F46002800F00682BC
:10309000012431463846FFF7ADFD10F00F09804698
:1030A00002D04846FFF778FFC8F30713B9F1000FC5
:1030B0000FD0A3B11C443F2C10DD1C230093604BA8
:1030C000009A1B78002B18BF1A461346009300F095
:1030D0003BBD0F2B07D1302CEFD80F34E4B20134B5
:1030E000E4B23F2CD5D9694B1888403000B2FFF7C5
:1030F0004BFD803000B2FFF7A1FA684B02461B7807
:10310000042B0FD8DFE813F00500080095004200FB
:103110001D01634B1A7005E0012D07D0C0F0198125
:10312000022D1BD0019B013300F0FCBC58215D4CEB
:1031300010FB01F12078090A2C3909B2FFF797FA40
:10314000C621207012FB01F1E33A02EB1121564A2D
:1031500009B21078FFF77CFA1070E3E76721504C52
:1031600010FB01F3A0F1B301207801EB132109B2A8
:10317000FFF76EFAB721207012FB01F1494A090AE4
:1031800010785B3909B2FFF772FAE5E7032DC9D869
:10319000DFE815F0DF00EF0004002A005824414D5D
:1031A00010FB04F42878240A2C3C24B221463E4C1F
:1031B000FFF75DFA287095F88000FFF758FAC623EC
:1031C00085F8800012FB03F3E33A207802EB132228
:1031D00012B21146FFF73CFA207094F88000FFF716
:1031E00037FA84F880009DE767242D4D10FB04F327
:1031F000A0F1B304287804EB132424B22146294C0F
:10320000FFF726FA287095F88000FFF721FAB7211A
:1032100085F8800012FB01F22078120A5B3A12B2A4
:103220001146FFF724FA207094F88000FFF71FFA88
:10323000D7E7032D3FF676AFDFE805F08B91385ED8
:10324000EFCD042004D6042008D704200AD7042098
:10325000F4D504207FCE042073CE042006D60420AB
:1032600086D6042088CE0420D8CF0420C8CF0420DE
:10327000D8CE0420AA850108C8850108EED2042012
:10328000E8D0042078CF0420E8CF0420F0CD04203B
:1032900070CE042006D7042028CF04200CD70420A9
:1032A000F4D40420F4D30420F4D204205824784D1C
:1032B00010FB04F42878240A2C3C24B22146754CD7
:1032C000FFF7D5F9287095F84000FFF7D0F9C6232D
:1032D00085F8400012FB03F3E33A207802EB132257
:1032E00012B21146FFF7B4F9207094F84000FFF7CE
:1032F000AFF984F8400015E76724674D10FB04F32D
:10330000A0F1B304287804EB132424B22146604CC6
:10331000FFF79EF9287095F84000FFF799F9B7215B
:1033200085F8400012FB01F22078120A5B3A12B2D3
:103330001146FFF79CF9207094F84000FFF797F9C9
:10334000D7E7052D3FF6EEAEDFE805F00309131DC4
:103350002765514B1A704E4B1A704E4BDAE64E4BA6
:1033600083F840204A4B83F840204A4B83F84020A2
:10337000D8E6494B83F88020454B83F88020454BA5
:1033800083F88020CEE6444B83F8C000404B83F89E
:10339000C000404B83F8C000C4E658243C4D10FBED
:1033A00004F42878240A2C3C24B22146394CFFF737
:1033B0005EF9287095F84000FFF759F985F840004C
:1033C00095F88000FFF753F985F8800095F8C00064
:1033D000FFF74DF9C62385F8C00012FB03F3E33A6B
:1033E000207802EB132212B21146FFF731F9207058
:1033F00094F84000FFF72CF984F8400094F880001E
:10340000FFF726F984F8800094F8C000FFF720F950
:1034100084F8C00086E667251F4C10FB05F3A0F179
:10342000B305207805EB13252DB22946FFF710F9D7
:10343000207094F84000FFF70BF984F8400094F8EE
:103440008000FFF705F984F8800094F8C000FFF7CA
:10345000FFF8B72184F8C00012FB01F20C4C120AED
:1034600020785B3A12B21146FFF701F9207094F808
:103470004000FFF7FCF884F8400094F88000FFF764
:10348000F6F884F8800094F8C000FFF7F0F8BFE782
:10349000F4D30420F4D20420F4D404204FF0010B20
:1034A000DFF8FC9231463846FFF7A4FB10F00F041A
:1034B0008246204601D0FFF76FFDCAF30712002CA9
:1034C00000F0A580AAB19344BBF13F0F3FF7F5ADE3
:1034D00092B24FF0000C5FFA8BFBABEB0201013AAA
:1034E000A84BC9B292B219F9011023F811C0002AF1
:1034F000F3D1013CA44B38F81B10E4B233F814208C
:10350000824284BFA14B33F814209E4B88BF8018A1
:1035100019F90B2000B211FB00F023F812000BF197
:10352000010B5FFA8BFBBBF13F0FBBD9984931F917
:103530000E2C31F90C8C31F90ACC42EA080731F92A
:10354000083C31F9060C4CEA070731F904BC31F9A3
:10355000026C1F4331F9104C07434BEA070737430E
:103560007BD121F80E4C21F80C4C21F80A4C21F8A3
:10357000084C21F8064C21F8044C21F8024C10317B
:10358000844B8B42D3D1A3F19201B1F91220B1F94E
:1035900022A0B1F9327042EA0A0CB1F94240B1F905
:1035A000520047EA0C0CB1F96290B1F9723044EA6A
:1035B0000C0C31F8026F40EA0C0C49EA0C0C53EA8F
:1035C0000C0C40F0EF80403630B2FFF7DDFA80306F
:1035D00000B2FFF733F800B208800882088408863A
:1035E000A1F84000A1F85000A1F860006A4BA1F8D2
:1035F00070008B42C9D1694B1B78042B3FF692AD0A
:10360000DFE813F09F01A4011202ED0136020F2A38
:103610001FD1BBF1300F3FF650AD21460BEB04023A
:103620000134584BD2B2102C19F9022023F8121091
:10363000F4D10BF10F0B5FFA8BFB70E713570134DA
:10364000504820F813100BEB0403DBB23F2BF5D9E5
:103650006CE7534A21465A44F5E71FFA8CFC4FF0B9
:103660008009B6B280B292B2A0EB0C07604402EBC4
:10367000060C921BBFB292B20FFA87FE16B2BA1AAC
:10368000C4271FFA8CFC80B212FB07924FF080090E
:10369000A4B2170A002A40F215121FFA88F8B8BF20
:1036A00047F07F4716FB02964FF08009BFB2320AFF
:1036B000002EB8BF42F07F42D61B40F29D221EFB77
:1036C000029E00EB0C09B6B2ACEB00001FFA89F9C0
:1036D000BEF1000F4FEA1E22A6EB090600B2B8BFEA
:1036E00042F07F42B6B2CDE90232FFF757FA801BB3
:1036F000029B1FFA80FA039A9BB2AAEB02021FFAFE
:103700008BF0174408EB000BE218A8EB00001FFA3F
:103710008BFBE41A92B200B20292FFF73FFA029AD0
:10372000A0EB0B00A4B280B202EB0B0CA2EB0B02DD
:10373000BFB21FFA8CFC04EB000E201A92B209EB08
:103740000C031FFA8EFE80B2ACEB090921F8103C85
:1037500006EB0E03AEEB060621F8029C21F80E3CA8
:103760000AEB0003A0EB0A0021F8046C21F80C3CE2
:10377000D31B174421F8060C21F80A3C21F8087CD9
:10378000FDE600BFF0CD0420AA850108C885010828
:1037900000CE042080CE0420FECD04200CD70420CF
:1037A00008860108BFB24FF0800880B292B2A0EB49
:1037B000070E38449FB21FFA8EFED319D21B0FFAA0
:1037C0008EFC92B29BB217B2AEEB02024FF0C40E67
:1037D00080B21FFA89F912FB0E824FF0800E00EBC7
:1037E000030B181A4FEA1228002A40F215121FFA8A
:1037F0008BFBB8BF48F07F4800B217FB02E74FF0E1
:10380000800E1FFA88F83A0A002FB8BF42F07F42B4
:10381000A2EB080740F29D221CFB02ECBFB24FEA6C
:103820001C22BCF1000FA7EB0B07B8BF42F07F4290
:10383000BFB20292FFF7B2F9C01B029A83B21FFA1D
:103840008AF09A1A029300EB090AA0EB090090444F
:10385000A2B21FFA8AFA941900B2B61AFFF79EF9BB
:10386000A4B2A0EB0A020BF14000B6B204EB0A09C5
:1038700092B2A4EB0A041FFA88F81FFA89F906EB42
:10388000020AB21AA4B248441FFA8AFA92B2403429
:1038900000B2A9EB0B09FFF777F98030A4B200B2B0
:1038A000FEF7CCFE088007F14000C7F14007504406
:1038B000574400B2FFF768F9803000B2FEF7BEFE51
:1038C000029B088203F14000104400B2FFF75CF94C
:1038D000803000B2FEF7B2FE0884A4EB080000B20C
:1038E000FFF752F9803000B2FEF7A8FE088608EB19
:1038F000040000B2FFF748F9803000B2FEF79EFEE8
:10390000029BA1F84000D01A403000B2FFF73CF90A
:10391000803000B2FEF792FEA1F8500038B2FFF7F7
:1039200033F9803000B2FEF789FEA1F8600009F19A
:10393000400000B2FFF728F9803000B2FEF77EFEAB
:1039400054E60020FFF7BEF8FFF7ECBB012D24D0B2
:10395000F7D3022D7FF4E6AB7D4D00227D4C672727
:10396000B7267D4B15F8010F13F8128018FB07F1ED
:10397000A8F1B30303EB1121FEF76AFE18FB06F171
:103980002870090A20785B39FEF771FE013204F8CD
:10399000010B402AE5D1FFF7C5BB704E0024704DE6
:1039A0004FF05808C6276C4B16F8010F13F8142077
:1039B000013412FB08F1090A2C39FEF758FEA2F176
:1039C000E30112FB07F23070287801EB1221FEF7B9
:1039D0003FFE402C05F8010BE5D1FFF7A3BB032DFB
:1039E0003FF6A0AB01A353F825F000BF4339000810
:1039F000FD390008013A0008153A00088020A1E7C7
:103A000000210846FEF706FF80212020FEF702FF76
:103A1000FFF788BB00210846FFF70AF88021202025
:103A2000FFF706F8FFF77EBB032D3FF67BAB01A344
:103A300053F825F043390008453A0008493A000890
:103A40005D3A000840207DE700210846FEF788FE29
:103A500040210420FEF784FEFFF764BB00210846E6
:103A6000FEF790FF40210420FEF78CFFFFF75ABBC2
:103A7000052D3FF657AB01A353F825F04339000855
:103A8000453A0008FD390008953A0008993A0008BF
:103A9000BD3A0008C02055E700210846FEF7F6FDB4
:103AA00040210420FEF7F2FD80212020FEF7EEFDEC
:103AB000C0212420FEF7EAFDFFF734BB00210846B1
:103AC000FEF7F6FE40210420FEF7F2FE80212020C2
:103AD000FEF7EEFEC0212420FEF7EAFEFFF722BB30
:103AE0000123FFF7F3BA1F4C238803F1D002904261
:103AF0007FF478AA01331C4A002103F007031180E8
:103B0000238008245180918020463288174B2A80D8
:103B10001C70FFF741FA2046FFF73EFA2B88013B65
:103B20002B8000230193124B9DF804501B78AB426D
:103B30003FF664AA0F4B1A78002A7FF4C0AA0E49F8
:103B400000920B88013B0B80009805B0BDE8F08F18
:103B5000F3D40420F4D30420F0CD0420F3D30420C4
:103B6000F4D2042002D60420EED20420EECD0420AC
:103B7000FAD50420EFCD042004D604202DE9F04F1F
:103B8000B64D044600204FF00809296089B0B449B9
:103B9000B44D0A60B449B54A0870B549137008704D
:103BA000B449B54B0870B549B54ADFF814B3DFF82E
:103BB00014A3B44EB44FDFF8108318801070206146
:103BC0002075A0622870308038808BF800008AF859
:103BD0000000A8F8000002930192C4E900000870F8
:103BE000AA49C4E90200C4E90600C4E9080048463D
:103BF00081F80090FFF784F84846FFF781F8029BB0
:103C000028780493CDF808B0CDF814A0D0B9484670
:103C1000FFF776F8834648465FFA8BFBFFF770F8AC
:103C2000BBF1FF0F5FFA80FA25D1BAF1D80F22D18C
:103C30000DF11F00FFF768F8824628B328780028A6
:103C400008BF504609B0BDE8F08F824609F1FF3940
:103C50001FFA89F9B9F1000F0AD00820FFF750F8D0
:103C6000BAF1FF0FC0B2F0D1D82807D0D928ECD1D3
:103C70004FF0130AE2E74FF48059E7E7B8F8003055
:103C80001B0AFF2BD4D0F3E79DF81F20C22A78D05F
:103C9000C92A73D0C02A6ED11020FFF731F88146AF
:103CA0000820FFF72DF80828804640F020821020D9
:103CB000FFF726F838800138B0F5804F80F01A827F
:103CC0001020FFF71DF830800138B0F5804F80F0EC
:103CD00013824046FFF714F8019BC0B20328187006
:103CE00000F20D82032212FB0088C14540F00A82D7
:103CF000D146DFF8A0B1019B5FFA89F81A789045A8
:103D00001AD32978002999D1012A3DD1604B1B781B
:103D1000012B40F00B815F4B1B78012B40F006819B
:103D20005D4A11705D4A13705D4B197008235D4A3E
:103D300013705D4A137065E0082009F10109FEF770
:103D4000DFFF5A4B03F808000420FEF7D9FF504B61
:103D500003F808000420FEF7D3FF0BF80800082042
:103D6000FEF7CEFF524AC0B2012802F80800C2D9BD
:103D70004FF0240A62E74FF0140A5FE74FF0110A90
:103D80005CE74FF0250A59E7032A40F0C980404A12
:103D90005378012B40F0CA803E4B5978012940F0FE
:103DA000C5809078012840F0C1809878012840F0C3
:103DB000BD801278012A40F089801A78012A0BD13F
:103DC000354B03211A70354B19700021344B5A7052
:103DD000022219709A70A9E7022A40F0A7802E4BA0
:103DE0000321197004212D4B197000212C4B1970DF
:103DF00059700121DA70082299702A4B1A7010222A
:103E0000294B1A70274933880A788A46501E082A97
:103E1000034414BF042203221341264A9BB2138099
:103E2000214A11783A88481E0829024414BF042107
:103E300003210DF11F000A411F4992B213FB02F347
:103E40000A801E4A1380FEF75FFF074600286FD0E6
:103E50002878002808BF3846F4E600BF14D70420AD
:103E600010D70420EFCD04200FD7042006D704205C
:103E70000DD70420EDD2042008D70420ECD2042072
:103E800085CE0420E8D10420EAD10420EECD042020
:103E900076CE042082CE04200CD70420FAD504204C
:103EA000F4D5042000D6042001D6042079CE0420C5
:103EB0007FCE0420FED50420FCD5042004D60420A7
:103EC00086CE04200ED70420ECCD0420022A2DD16A
:103ED0001A78012A11D102218C4B042019708C4BC5
:103EE000187000208B4B18709A7010225870D9707F
:103EF000894B1A700822894B83E7022A16D1834B1B
:103F0000042119700621824B19700021814B197010
:103F100059709970D97001215A711971102306E7EF
:103F20001A232878002808BF18468BE61B23F8E7D9
:103F30009DF81F30DA2B01D0122789E71020FEF7F9
:103F4000DFFE06460820FEF7DBFE029BC0B2033E02
:103F500018700323B6B203EB40039E4201D00E2734
:103F600076E701380228FAD8B846DFF800B2029B9B
:103F700008201A785FFA88F39A421BD8FEF7C0FE31
:103F80000820FEF7BDFE033E0420FEF7B9FE042024
:103F9000FEF7B6FEB6B2002E36D1029B0122DFF844
:103FA00080911978059BDFF880E193F80080DFF8B5
:103FB00074C13FE0FEF7A4FE023E5FFA80F90820DC
:103FC000FEF79EFE019BC0B293F800C0B6B200237C
:103FD000D9B2614501D30F273AE7039301330BEBC5
:103FE000030E1EF801ECCE45F2D15FFA88F34C4A7D
:103FF00008F10108D15401094A4B00F00F00039A5F
:104000009954494B9854B2E70820013EFEF778FED8
:10401000C0E716F8090001361EF800301CF8000051
:10402000023302FA00F0DBB202FA03F3034333EA8D
:1040300008035AD1F3B29942EBD83C4B3C4E187866
:104040000023DFF8DCC0DAB2914242D8394A0023BB
:10405000138053809380049A12881AB136490A80DB
:10406000364A13803649374B0A781E8812B1F0B2AF
:10407000FEF7D2FA300A0826FEF7CEFA30460E7066
:10408000FEF78AFF3046FEF787FF2F4B187800288F
:104090007FF4DEAE2D4B1B8823602D4B1B886360A5
:1040A0002C4B1B78A360194B1B7823752A4B1B885C
:1040B000E3602A4B1B8823619AF80030A361174BF9
:1040C0001B78E361264B2362264B6362264BA36277
:1040D000B8E513F80C200133B25C002A0CBF0122B2
:1040E00002221042AFD11727B2E61827B0E64FF0F0
:1040F000070AA3E5C246A1E54FF0090A9EE54FF085
:104100000A0A9BE54FF00B0A98E500BF0CD7042084
:10411000FAD50420F4D5042000D6042001D60420CA
:104120007CCE042073CE042070CE04200FD7042050
:104130007FCE0420EED204200AD7042002D6042029
:10414000EECD0420ECCD0420EFCD0420E8D10420F6
:10415000EAD1042085CE0420FED50420FCD504201D
:10416000F4D40420F4D30420F4D2042079CE042023
:1041700030B54FF48043ABB01D4C042509930023A8
:1041800009A8229302F02EF91A4B4FF480710120F6
:104190001A6B42F002021A631A6B02F002020192D9
:1041A000019A1A6B42F002021A631A6B02F00202C1
:1041B0000292029A1A6C42F400121A641B6C08955F
:1041C00003F400130393039B1223CDE9041302238A
:1041D00004A9CDE90603204601F048F94FF4007325
:1041E00004A920460493089501F040F92BB030BD96
:1041F00000040240003802400268244B9A4210B585
:104200008AB041D103F50033052405A920481A6B73
:1042100042F480721A631A6B02F480720192019A5E
:104220001A6B42F002021A631A6B02F00202029247
:10423000029A1A6B42F002021A631A6B02F002022F
:104240000392039A1A6C42F480421A641B6C03F4C2
:1042500080430493049B0223CDE905330793002395
:10426000CDE9083401F002F94FF4804305A909486B
:104270000593099401F0FAF84FF4004305A90548A5
:104280000593099401F0F2F80AB010BD003800401F
:10429000002002400004024030B514228BB00446D6
:1042A00000210DEB020012F0DFFD23682B4A934240
:1042B00033D12B4B0225072405A95A6C294842F01B
:1042C00010025A645A6C02F010020092009A1A6BA3
:1042D00042F002021A631A6B02F002020192019A82
:1042E0001A6B42F001021A631B6B099403F001037D
:1042F0000293029B8023CDE9053501F0B7F84FF416
:10430000007305A918480994CDE905350023CDE9C6
:10431000073301F0ABF80BB030BD144A9342FAD129
:104320000F4B032112485A6C42F020025A645A6C17
:1043300002F020020392039A1A6B42F004021A63FD
:10434000C0221B6B03F004030493049B0223CDE9FA
:1043500005230823CDE9081305A9DAE70010014079
:1043600000380240000402400000024000140140F6
:1043700000080240444B45485A6C42F080622DE9E7
:10438000F0415A648CB05A6C02240E2507A902F041
:1043900080624FF480573E4E4FF008080192019A18
:1043A0001A6B42F010021A631A6B02F010020292AA
:1043B000029A1A6B42F040021A631A6B02F0400232
:1043C0000392039A1A6B42F480721A631A6B02F416
:1043D00080720492049A1A6B42F400721A631A6B88
:1043E00002F400720592059A1A6B42F480621A6315
:1043F0001B6B03F480630693069B1023CDE90734FF
:1044000000230B95CDE9093401F030F8092307A901
:1044100020480B93CDE9077401F028F84FF4674367
:1044200007A930460B95CDE9073401F01FF84EF689
:10443000FF7307A918480B95CDE9073401F016F86A
:10444000F7230B9507A9154DCDE90734284601241C
:1044500001F00CF807A930460797089401F006F818
:1044600007A92846CDE9078401F000F8224639461D
:10447000304601F0E3F822464146284601F0DEF8D6
:104480000CB0BDE8F08100BF0038024000100240CF
:104490000020024000180240002402400028024090
:1044A0007047FEE7FEE7FEE7FEE77047704770479C
:1044B00000F03EBD0120704708B512F06FFC1623D6
:1044C00003604FF0FF3008BD08B512F067FC1623FB
:1044D0000360FEE770B50E4615460C46A31B9D42D1
:1044E00001DC284670BDAFF3008004F8010BF5E74E
:1044F0004FF0FF3070474FF4005300204B6070477F
:10450000012070470020704708B50A4B0246196821
:1045100009B9094919601868694602448A4206D9EE
:1045200012F03CFC0C2303604FF0FF3008BD1A6012
:10453000FCE700BF18D7042010DA04200F49002040
:10454000D1F8883043F47003C1F888300C4B1A68F6
:1045500042F001021A6098601A6822F0847222F414
:1045600080321A60074A5A601A6822F480221A6060
:10457000D8604FF000638B60704700BF00ED00E033
:104580000038024010300024F8B50F4615460024CC
:10459000064EAC4208DA39194FF0FF33012230469B
:1045A00002F08DFE0134F4E72846F8BD983500206E
:1045B000DFF834D0002103E00C4B5B58435004314A
:1045C0000B480C4B42189A42F6D30B4A02E00023E8
:1045D00042F8043B094B9A42F9D3FFF7AFFF12F0C0
:1045E000F5FBFDF7D9FB70470000052080D30F08CD
:1045F000000000208C0000209000002010DA042031
:10460000FEE7000020B901220221024801F016B89D
:10461000704700BF00200240234B1A6B42F48072A7
:1046200010B51A6388B01B6B044603F4807390B90D
:104630000093009BB9B91D4B059133F81430CDE9B7
:104640000331022303A90693194B53F8240000F009
:104650000DFF08B010BD012802D10193019BE9E7CD
:104660000293029BE6E70129F3D1104B002233F8B5
:10467000143003930223CDE905239CB10D4B049321
:1046800003A90B4B53F8240000F0F0FE0A4B002264
:104690000F2113F91440204600F080FC204600F062
:1046A000AFFCD6E7054BEAE70038024056770F0823
:1046B000080000200000211050770F0800001110A2
:1046C0002DE9F34116461F464FF44032174B804602
:1046D0004FF0340C5A600D46154A164812680CFB10
:1046E00002021248926C022ADDE9081418BF002267
:1046F000C3E90221104A1A6000F0A7FD98B94146AB
:104700000A4800F069FE70B9009733462A462146F0
:10471000064800F0C6FD30B90A21044802B0BDE8E1
:10472000F04100F0D8BD02B0BDE8F08138D70420D8
:104730001CD7042078D7042000B00240034B34215A
:10474000034A1B6801FB0323186E70471CD7042023
:1047500078D70420034B3421034A1B6801FB032351
:10476000586E70471CD7042078D70420194A0023BC
:1047700070B512680446342517488EB0022605FB32
:1047800002020A91FF21156E0193526EADF834308A
:104790008DF8363004920596CDE90613CDE9025323
:1047A0004FF4C0610723CDE90B52CDE9081322462F
:1047B00001A901F0EBFA0C20084B4FF0FF316043E8
:1047C0001A185160064991604FF07F421A500EB09E
:1047D00070BD00BF1CD7042078D7042020D7042048
:1047E0001C000020014B1860704700BF1CD704203C
:1047F0000246014801F0F3BA78D70420034B1A6847
:104800000C235343024AD050704700BF1CD70420EA
:1048100020D70420084B13B51C683421074B0190A6
:10482000204601FB043100230093D1E91823C96D10
:10483000FFF746FF02B010BD1CD7042078D7042034
:104840000A4B30B51B683425094C05FB0343D3E9FB
:1048500017549B6C04FB0101022B03D192B225F883
:10486000112030BD45F82120FBE700BF1CD70420F4
:1048700078D704202DE9F04F2D4B85B0A2F120050B
:104880004FF00008D3F800B0CDE9010129480C2110
:1048900001FB0B018968B1F804A0CB880AF1070677
:1048A0000A685D43F6100093CAEBC60006FB0525B7
:1048B0000AF1FF3252FA80F30393029B03EB0809DB
:1048C000009B98451FFA89F902D305B0BDE8F08F27
:1048D000012E2C7804D0022E09D12C8864BAA4B2FF
:1048E0000027BA450AD808F101083544E5E76A7897
:1048F000240444EA0224AA781443F1E7019B01222C
:10490000D819039BD91B80B201378A4049462242FD
:104910004FF00C020DBF074B02FB0BF2054B02FBE5
:104920000B3214BF9A585268FFF78AFFD9E700BFCD
:104930001CD7042020D704202DE9F84307460D4654
:104940001446101B12F8011B0029FAD1214A0C262B
:10495000DFF888804FF0340E1168012B1E4A0EFBE1
:10496000018E06FB0126DEF86020B668B6F804C0AA
:10497000B2FBFCF21AD0022B1FD03BB2A146002B97
:104980004FF03403D8BF012703FB0188A9EB0403D0
:10499000B088D8F860109BB219F8012B00FB1313F4
:1049A0009BB2834200D36AB9BDE8F883101A0CFBAE
:1049B00000F007EB500087B2DFE7101A10FB0CF095
:1049C000C01BF8E738462946FFF754FFB088384443
:1049D00087B2DBE71CD7042020D7042078D7042037
:1049E00008B5094B4FF4805108481A68936943F0A1
:1049F00001039361012200F021FE012208210448F5
:104A0000BDE8084000F01ABE78D70420002002401C
:104A1000002802404B4B4C485A6C42F08062F0B583
:104A20005A648FB05A6C02240E2509A902F08062E4
:104A30004FF48057454E0092009A1A6B42F40002E0
:104A40001A631A6B02F400020192019A1A6B42F087
:104A500010021A631A6B02F010020292029A1A6B89
:104A600042F040021A631A6B02F040020392039A6A
:104A70001A6B42F480721A631A6B02F48072049209
:104A8000049A1A6B42F400721A631A6B02F40072F1
:104A90000592059A1A6B42F480621A631A6B02F44B
:104AA00080620692069A1A6B42F480721A631A6B3D
:104AB00002F480720792079A1A6B42F480621A63BA
:104AC0001B6B0D9503F480630893089B1023CDE9BD
:104AD00009340023CDE90B3400F0C8FC092309A9EF
:104AE0001B480D93CDE9097400F0C0FC4FF46743F7
:104AF00009A930460D95CDE9093400F0B7FC4EF612
:104B0000FF7309A913480D95CDE9093400F0AEFCF7
:104B1000F7230D9509A90125CDE909340E4C20464E
:104B200000F0A4FC09A9304609970A9500F09EFC04
:104B3000082309A92046CDE9093500F097FC0FB0FC
:104B4000F0BD00BF003802400010024000200240CB
:104B500000180240002402400028024005480823B3
:104B60000360C02343610523C3614FF48033C362F4
:104B700001F038BC20D8042010B52822244C092389
:104B8000352140F21B1040F21D1CC4E905230B2304
:104B9000C4E9071340F215230021C4E9093040F2AB
:104BA00035232046C4E90B3CFFF7D8FF4FF4F07ED5
:104BB0004FF488732046C4E918E30023A38684F8E1
:104BC0003630C4E90133C4E90333124B236001F0EA
:104BD00026F9014610B92046FFF71CFF0C4801F0EA
:104BE00069F801224FF480510B4800F027FD0122A3
:104BF00008210A4800F022FD00F020F9084B094A7C
:104C00000C211B68002001FB0323074A9A6010BD9A
:104C100078D70420006801400020024000280240AC
:104C20001CD7042020D704201C0000202DE9F743C6
:104C3000214C0126214D4FF00008102721468146C6
:104C40004FF6FF722846CDF80480C4E90067C4E936
:104C5000026801F072FE304600F07CF90223214622
:104C60004FF6FF722846C4E90037C4E9026801F034
:104C700064FE032321464FF6FF722846C4E900373D
:104C80000823C4E9023801F058FE4FF408732146A6
:104C90004FF6FF72019304232846A660C4E900374B
:104CA000019BE36001F049FE4946284603B0BDE898
:104CB000F04301F059BE00BFA4D80420D4D9042089
:104CC000554B9A6B42F0010270B59A638EB09A6BA5
:104CD00006460EAC514802F0010200250192019AED
:104CE0001A6B42F480021A631A6B02F48002029279
:104CF000029A1A6B42F004021A631A6B02F0040261
:104D00000392039A1A6B42F008021A631A6B02F0BC
:104D100008020492049A1A6B42F010021A631A6B8A
:104D200002F010020592059A1A6B42F020021A63F3
:104D30001A6B02F020020692069A1A6B42F04002A9
:104D40001A631A6B02F040020792079A1A6B42F03C
:104D500080021A6301221B6B03F080030893089BF7
:104D60000223CDE90A320C930C230D93082344F857
:104D7000143D214600F07AFB4CF20373214628488B
:104D8000099300F073FB4FF683732146254809937E
:104D900000F06CFB4FF63F0321462348099300F0D7
:104DA00065FB48F2331321462048099300F05EFB6F
:104DB000282321461E481F4C099300F057FB8023EF
:104DC0004FF400724FF48051256320463463E5614F
:104DD000A663C4E901534FF48063C4E903234FF48D
:104DE0008043C4E905134FF40033C4E908350323B5
:104DF000C4E90A35104B236000F0BAF9204600F0F0
:104E000039F92A460F21382000F0C8F8382000F080
:104E1000F7F80EB070BD00BF003802400008024035
:104E2000000C024000100240001402400018024032
:104E3000001C0240D0D804201064024038B51A4C3F
:104E400007211A4B04221A4D4FF4006023600223FD
:104E5000E260AB61C5E90031C5E90221C5E904336F
:104E6000102240230021C4E904234FF48073A1627F
:104E7000C4E906314FF48053C4E908032046C4E96D
:104E80000111FFF71DFF204629460A4C01F035FDB0
:104E900038B10123237040F20360FFF7C7FE20788A
:104EA00038BD2070F7E700BFD4D90420400100A02E
:104EB000B4D80420140000207047000038B50E4B11
:104EC00005460E4A18784FF47A73B3FBF0F3106876
:104ED000B0FBF3F000F0A2F8044658B90F2D09D842
:104EE000024629464FF0FF3000F058F8044B2046A8
:104EF0001D6038BD0120FCE71500002004000020E3
:104F00001800002008B5094B03201A6842F400720B
:104F10001A601A6842F480721A6000F02DF80020BE
:104F2000FFF7CCFFFFF7C8FF002008BD003C0240A0
:104F3000034A044B11681B780B441360704700BF91
:104F400008DA042015000020014B1868704700BFE4
:104F500008DA042038B50446FFF7F6FF0546631C5F
:104F60001EBF044B1B78E418FFF7EEFF401BA04266
:104F7000FAD338BD15000020074A0002D36800F4B8
:104F8000E06023F4E0631B041B0C43F0BF6343F4B5
:104F900000330343D360704700ED00E0164B70B55B
:104FA000DC684FF0FF36C4F30224C4F10705231D6B
:104FB000042D28BF0425062B06FA05F38CBF033CFD
:104FC0000024002821EA030303FA04F306FA04F498
:104FD00022EA040443EA04034FEA0313DBB206DBCC
:104FE00000F1604000F5614080F8003370BD00F0D2
:104FF0000F00024A1354F9E700ED00E014ED00E061
:10500000002808DB4209012300F01F0003FA00F02A
:10501000014B43F82200704700E100E00138B0F195
:10502000807F0AD2064BF021064A5860002082F8A1
:105030002310072298601A6070470120704700BF54
:1050400010E000E000ED00E003681821DAB223F47C
:105050007F73103A23F00303B2FBF1F20449032AF1
:10506000895C88BF0433C1658365806D704700BF6C
:105070005C770F0870B50446FFF766FF0546002C05
:1050800071D00023226884F83430022384F835304C
:10509000136823F00103136021680B68D8073CD420
:1050A0000B68324DA0691D40D4E901231343E26827
:1050B00013432269134362691343E26903431343B1
:1050C000226A1343626A042A43EA050302BFD4E951
:1050D0000B5635432B43042A0B604B6923F007031F
:1050E00043EA02030BD1A26AE56A13433DB1F8B962
:1050F000012A2DD001D3022A01D1EA012BD44B6120
:105100002046FFF7A1FFE26D3F239340836000201C
:105110000123606584F8353009E0FFF715FF401B77
:105120000528B9D920230320636584F8350070BDB4
:10513000B0F5005F13D1032AE1D801A050F822F0A6
:1051400057510008FB500008575100085151000802
:10515000B5F1C07FD3D1402301206365E5E7022A82
:10516000F9D9032AC8E70120E1E700BF3F8010F02A
:1051700038B5054620B390F83540E4B2022C1DD076
:10518000036800241A6822F001021A6021221C60C0
:105190005C609C60DC601C615A61FFF755FFEA6D42
:1051A0003F23934083606C6585F8344085F8354033
:1051B000C5E90F44C5E91144C5E91344204600E0A0
:1051C000012038BD70B50468049D666C45EA034350
:1051D00006F04046334363644368E263B3F5403FFF
:1051E00030D186681EB1012E03D121F07F41A16329
:1051F00070BD022E01F47F0301F47F45C8B207D1D0
:10520000D90CAD0AC90241EA451141EAD001EEE7E5
:10521000032E01F07F420AD1DB0CED0A9B02D10F75
:1052200043EA451343EAD00343EAC131DFE7190DEE
:105230002D0B0902130F41EA051141EA101141EA51
:105240000331D4E7E160D3E7704710B5044630B3CB
:1052500090F8393003F0FF021BB980F83820FFF7CF
:10526000F3FF226802236168002084F83930136854
:1052700023F440330B43A1681360536B23F00703FF
:105280000B43E1685363136C23F47F5323F03F0314
:105290000B4313640123E06384F8393010BD01200F
:1052A000FCE773B590F838400546012C4FF0020436
:1052B0000FD080F839400126069C80F838600094B1
:1052C000FFF780FF2A68002013683343136002B0A1
:1052D00070BD2046FBE7002373B5019304460368C5
:1052E0000D461B68DB0717D42268D369526A134343
:1052F0009E0606D5FFF728FE064623685A68D206A2
:1053000043D52368122200209A60012384F83800D4
:1053100084F8393002B070BDFFF716FE06462368E8
:105320005A689207E0D45A680192019A12F0210F4C
:1053300017D0019A950603D5E26B42F00202E263B0
:10534000019AD00703D5E26B42F00102E263212209
:105350009A600423012084F83930002384F838301F
:10536000D8E7691CDCD0FFF7EFFD801BA84201D80D
:10537000002DD4D1E36B032043F02003E36300232B
:1053800084F8390084F83830C4E75A680192019AE9
:1053900012F0290F16D0019A160703D5E26B42F0DE
:1053A0000402E263019A950603D5E26B42F0020221
:1053B000E263019AD00703D5E26B42F00102E26397
:1053C0002922C5E7691C99D0FFF7BEFD801BA842C2
:1053D000D0D8002D91D1CDE790F83830012B4FF087
:1053E0000203F0B537D00E01012280F8393083195D
:1053F00080F838201C4F5C6AD3E90752036845EAFD
:105400000242093D012D0FD804F07F4C4CEA020204
:1054100069B9596A39400A435A6282699A61426A93
:1054200022F07F429A6210E042EA0462A9B1D9698F
:105430000644012D01EA070142EA0102DA61B2697C
:105440001A6102D824F07F441C62012380F83930AD
:10545000002380F838301846F0BD596A39400A43B5
:105460005A6282699A61F0E7F0FFFC002DE9F04F83
:105470000B6885B0DFF8BC81019300236B4ADFF82D
:10548000B8910124019D9C402540AC4240F0B4807D
:105490004C684FEA430E032624F0100C06FA0EF671
:1054A0000CF1FF37F643012F11D8876807EA060A87
:1054B000CF6807FA0EF747EA0A078760476827EAC6
:1054C000050AC4F300179F4047EA0A074760C76808
:1054D000BCF1020F07EA060A8F6807FA0EF747EADF
:1054E0000A07C76016D14FEAD30A03F0070B4FF043
:1054F0000F0C00EB8A0A4FEA8B0BDAF820700CFADB
:105500000BFC27EA0C0C0F6907FA0BF747EA0C07AC
:10551000CAF8207007683E4004F0030707FA0EFE41
:105520004EEA06060660E60066D5D8F8446023F029
:10553000030703F0030C4FF00F0E46F4804607F10B
:1055400080474FEA8C0CC8F8446007F59C37D8F8C0
:10555000446006F480460396039E0EFA0CF6D7F8D4
:1055600008A02AEA060E324EB0424CD006F58066FC
:10557000B0424AD006F58066B04248D006F5806653
:10558000B04246D006F58066B04244D0484544D08B
:1055900006F50066B04242D006F58066B04240D0C3
:1055A00006F58066B0423ED006F58066B04214BF74
:1055B0000A26092606FA0CF614F4803F46EA0E067F
:1055C000BE606FEA050716680CBF3E402E4314F418
:1055D000003F166056680CBF3E402E4314F4801FF7
:1055E000566096680CBF3E402E43A4029660D66873
:1055F00054BF3E402E43D6600133102B7FF441AFA1
:1056000005B0BDE8F08F0026D4E70126D2E70226D8
:10561000D0E70326CEE70426CCE70526CAE7062610
:10562000C8E70726C6E70826C4E700BF003C0140DC
:105630000000024000380240001402400AB18161BB
:1056400070470904FBE703689A69910701D50022B6
:105650009A629A69D20703D49A6942F001029A6168
:105660007047000030B5039D046845EA0242606857
:105670001343C1F309021A43034B43EA555320EA8B
:1056800003000243626030BDFF63FF03036870B52F
:10569000044698690D46164610F0100016D170BDEC
:1056A000691C14D0FFF750FC801BA84200D86DB9CC
:1056B000636C43F020036364202384F841300023AB
:1056C000012084F8423084F84030E8E72368996983
:1056D0008A06E5D5102220252046DA61DD61FFF734
:1056E000B2FF2268536823F0FF7323F48B3323F453
:1056F000FF7323F001035360636C43F0040363649E
:1057000084F84150DBE770B504460D461646236821
:105710009B695B070ED4324629462046FFF7B6FF49
:10572000F0B923689A6991061CD59A69520703D586
:10573000228D0AB1002070BD2021D9615A6822F063
:10574000FF7222F48B3222F4FF7222F001025A60BF
:105750000023636484F8411084F8423084F84030B8
:105760000120E8E7FFF7F0FB801BA84201D8002DDD
:10577000CDD1636C43F020036364202384F841306F
:105780000023EBE770B504460D46164623689B6977
:105790009B0601D5002070BD324629462046FFF702
:1057A00075FF90B9FFF7D0FB801BA84201D8002DF0
:1057B000ECD1636C43F020036364202384F8413010
:1057C000002384F8423084F840300120E3E72DE9DB
:1057D000F041069F0446884616461D462268936996
:1057E00038EA03030CBF01230023B34201D0002099
:1057F00015E06B1CF3D0FFF7A7FBC01BA84201D834
:10580000002DEBD1636C012043F02003636420235F
:1058100084F84130002384F8423084F84030BDE8F9
:10582000F08170B504460D46164623689B699B07B8
:1058300001D5002070BD324629462046FFF726FFDD
:10584000A0B96A1CF1D0FFF77FFB801BA84201D8EA
:10585000002DEAD1636C43F020036364202384F8B5
:105860004130002384F8423084F840300120E1E7E1
:1058700010B5044600284AD090F8413003F0FF02EA
:105880001BB980F84020FEF773FC242384F84130D4
:1058900023681A6822F001021A60626822F07062BE
:1058A0001A619A6822F400429A60D4E9022101291F
:1058B00024D142F400429A605A68002042F00072FB
:1058C00042F400425A60DA6822F40042DA60D4E915
:1058D00004210A43A16942EA0122DA60D4E90721DE
:1058E0000A431A601A6842F001021A6020236064B9
:1058F00084F84130206384F8420010BD42F4044231
:1059000002299A60D8D14FF400625A60D4E701208E
:10591000F3E700002DE9F743984690F8413004463C
:105920000E46202B914640F0828090F84030012BAB
:105930007DD0012780F84070FFF706FB192305464C
:1059400000903A464FF400412046FFF740FF18B15F
:10595000012003B0BDE8F0832123C4F824906063E4
:1059600084F84130102384F842306064A4F82A801F
:10597000638DFF2B2F4B26D9FF22009322854FF0FA
:10598000807331462046FFF76DFE638D2A460A99E3
:1059900020469BB2FBB9FFF7F5FE0028D8D123685B
:1059A0002021D9615A6822F0FF7222F48B3222F44E
:1059B000FF7222F001025A6084F8411084F840001E
:1059C00084F84200C5E7628D009392B222854FF0C1
:1059D0000073D2B2D5E7FFF724FF0028B8D1636A7D
:1059E000226813F8011B91626362638D228D013B73
:1059F000013A9BB292B26385638D22859BB2002BE4
:105A0000C3D0002AC1D1009580210A9B2046FFF710
:105A1000DEFE00289CD1638DFF2B03D9FF2200906E
:105A20002285ACE7628D009092B22285CFE70220FA
:105A30008FE700BF002000802DE9F743984690F8DB
:105A4000413004460E46202B914640F0838090F86A
:105A50004030012B7ED0012780F84070FFF774FAA8
:105A60001923054600903A464FF400412046FFF7BF
:105A7000AEFE18B1012003B0BDE8F0832223C4F8C4
:105A80002490606384F84130102384F842306064CD
:105A9000A4F82A80638DFF2B2F4B26D9FF22009379
:105AA00022854FF0807331462046FFF7DBFD638D82
:105AB0002A460A9920469BB2FBB9FFF763FE0028ED
:105AC000D8D123682021D9615A6822F0FF7222F4CC
:105AD0008B3222F4FF7222F001025A6084F84110E6
